{
  "_format": "hh-sol-artifact-1",
  "contractName": "Emission",
  "sourceName": "contracts/Emission.sol",
  "abi": [
    {
      "anonymous": false,
      "inputs": [
        {
          "indexed": true,
          "internalType": "address",
          "name": "wallet_id",
          "type": "address"
        },
        {
          "indexed": true,
          "internalType": "string",
          "name": "carbon",
          "type": "string"
        },
        {
          "indexed": true,
          "internalType": "string",
          "name": "date",
          "type": "string"
        },
        {
          "indexed": false,
          "internalType": "uint256",
          "name": "fees",
          "type": "uint256"
        }
      ],
      "name": "EmissionData",
      "type": "event"
    },
    {
      "inputs": [
        {
          "internalType": "address payable",
          "name": "_govId",
          "type": "address"
        }
      ],
      "name": "collectFee",
      "outputs": [],
      "stateMutability": "nonpayable",
      "type": "function"
    },
    {
      "inputs": [
        {
          "internalType": "address",
          "name": "_walletID",
          "type": "address"
        },
        {
          "internalType": "string",
          "name": "_carbon",
          "type": "string"
        },
        {
          "internalType": "string",
          "name": "_date",
          "type": "string"
        }
      ],
      "name": "createEmissionData",
      "outputs": [],
      "stateMutability": "payable",
      "type": "function"
    },
    {
      "inputs": [],
      "name": "dataCount",
      "outputs": [
        {
          "internalType": "uint256",
          "name": "",
          "type": "uint256"
        }
      ],
      "stateMutability": "view",
      "type": "function"
    },
    {
      "inputs": [
        {
          "internalType": "uint256",
          "name": "",
          "type": "uint256"
        }
      ],
      "name": "emmis",
      "outputs": [
        {
          "internalType": "address",
          "name": "wallet_id",
          "type": "address"
        },
        {
          "internalType": "string",
          "name": "carbon",
          "type": "string"
        },
        {
          "internalType": "string",
          "name": "date",
          "type": "string"
        },
        {
          "internalType": "uint256",
          "name": "fees",
          "type": "uint256"
        }
      ],
      "stateMutability": "view",
      "type": "function"
    }
  ],
  "bytecode": "0x60806040526000805534801561001457600080fd5b506107ea806100246000396000f3fe60806040526004361061003f5760003560e01c80630c345808146100445780635da40c471461007d57806369b59e75146100a15780638376aef0146100c3575b600080fd5b34801561005057600080fd5b5061006461005f366004610420565b6100d6565b6040516100749493929190610489565b60405180910390f35b34801561008957600080fd5b5061009360005481565b604051908152602001610074565b3480156100ad57600080fd5b506100c16100bc3660046104e9565b61021a565b005b6100c16100d13660046105b0565b6102c0565b6001602081905260009182526040909120805491810180546001600160a01b039093169261010390610626565b80601f016020809104026020016040519081016040528092919081815260200182805461012f90610626565b801561017c5780601f106101515761010080835404028352916020019161017c565b820191906000526020600020905b81548152906001019060200180831161015f57829003601f168201915b50505050509080600201805461019190610626565b80601f01602080910402602001604051908101604052809291908181526020018280546101bd90610626565b801561020a5780601f106101df5761010080835404028352916020019161020a565b820191906000526020600020905b8154815290600101906020018083116101ed57829003601f168201915b5050505050908060030154905084565b336001600160a01b038216146102875760405162461bcd60e51b815260206004820152602760248201527f4f6e6c7920617574686f72697a656420656e746974792063616e20636f6c6c656044820152666374206665657360c81b60648201526084015b60405180910390fd5b6040516001600160a01b038216904780156108fc02916000818181858888f193505050501580156102bc573d6000803e3d6000fd5b5050565b600034116103105760405162461bcd60e51b815260206004820152601d60248201527f466565732073686f756c642062652067726561746572207468616e2030000000604482015260640161027e565b60008054908061031f83610660565b9091555050604080516080810182526001600160a01b038581168252602080830186815283850186905234606085015260008054815260019283905294909420835181546001600160a01b03191693169290921782559251919290919082019061038990826106d8565b506040820151600282019061039e90826106d8565b5060608201518160030155905050806040516103ba9190610798565b6040518091039020826040516103d09190610798565b6040518091039020846001600160a01b03167f7b825f9c39d0e80158251342653d426fd61076a41eb60ef6202376c66e10199c3460405161041391815260200190565b60405180910390a4505050565b60006020828403121561043257600080fd5b5035919050565b60005b8381101561045457818101518382015260200161043c565b50506000910152565b60008151808452610475816020860160208601610439565b601f01601f19169290920160200192915050565b6001600160a01b03851681526080602082018190526000906104ad9083018661045d565b82810360408401526104bf818661045d565b91505082606083015295945050505050565b6001600160a01b03811681146104e657600080fd5b50565b6000602082840312156104fb57600080fd5b8135610506816104d1565b9392505050565b634e487b7160e01b600052604160045260246000fd5b600082601f83011261053457600080fd5b813567ffffffffffffffff8082111561054f5761054f61050d565b604051601f8301601f19908116603f011681019082821181831017156105775761057761050d565b8160405283815286602085880101111561059057600080fd5b836020870160208301376000602085830101528094505050505092915050565b6000806000606084860312156105c557600080fd5b83356105d0816104d1565b9250602084013567ffffffffffffffff808211156105ed57600080fd5b6105f987838801610523565b9350604086013591508082111561060f57600080fd5b5061061c86828701610523565b9150509250925092565b600181811c9082168061063a57607f821691505b60208210810361065a57634e487b7160e01b600052602260045260246000fd5b50919050565b60006001820161068057634e487b7160e01b600052601160045260246000fd5b5060010190565b601f8211156106d3576000816000526020600020601f850160051c810160208610156106b05750805b601f850160051c820191505b818110156106cf578281556001016106bc565b5050505b505050565b815167ffffffffffffffff8111156106f2576106f261050d565b610706816107008454610626565b84610687565b602080601f83116001811461073b57600084156107235750858301515b600019600386901b1c1916600185901b1785556106cf565b600085815260208120601f198616915b8281101561076a5788860151825594840194600190910190840161074b565b50858210156107885787850151600019600388901b60f8161c191681555b5050505050600190811b01905550565b600082516107aa818460208701610439565b919091019291505056fea264697066735822122000158a0de0b585d92d0e27d4bf104681de63eead3327d89edaa43b74c9f0d6a264736f6c63430008180033",
  "linkReferences": {},
  "deployedLinkReferences": {}
}