{
  "_format": "hh-sol-artifact-1",
  "contractName": "UserAuth",
  "sourceName": "contracts/UserAuth.sol",
  "abi": [
    {
      "anonymous": false,
      "inputs": [
        {
          "indexed": true,
          "internalType": "address",
          "name": "walletId",
          "type": "address"
        },
        {
          "indexed": false,
          "internalType": "string",
          "name": "name",
          "type": "string"
        },
        {
          "indexed": false,
          "internalType": "string",
          "name": "privilege",
          "type": "string"
        },
        {
          "indexed": false,
          "internalType": "string",
          "name": "authority",
          "type": "string"
        }
      ],
      "name": "UserRegistered",
      "type": "event"
    },
    {
      "inputs": [
        {
          "internalType": "address",
          "name": "_userAddress",
          "type": "address"
        }
      ],
      "name": "checkUserExists",
      "outputs": [
        {
          "internalType": "bool",
          "name": "",
          "type": "bool"
        }
      ],
      "stateMutability": "view",
      "type": "function"
    },
    {
      "inputs": [
        {
          "internalType": "address",
          "name": "_walletId",
          "type": "address"
        },
        {
          "internalType": "string",
          "name": "_name",
          "type": "string"
        },
        {
          "internalType": "string",
          "name": "_privilege",
          "type": "string"
        },
        {
          "internalType": "string",
          "name": "_authority",
          "type": "string"
        }
      ],
      "name": "setUser",
      "outputs": [],
      "stateMutability": "nonpayable",
      "type": "function"
    },
    {
      "inputs": [],
      "name": "userCount",
      "outputs": [
        {
          "internalType": "uint256",
          "name": "",
          "type": "uint256"
        }
      ],
      "stateMutability": "view",
      "type": "function"
    },
    {
      "inputs": [
        {
          "internalType": "address",
          "name": "",
          "type": "address"
        }
      ],
      "name": "users",
      "outputs": [
        {
          "internalType": "string",
          "name": "name",
          "type": "string"
        },
        {
          "internalType": "string",
          "name": "privilege",
          "type": "string"
        },
        {
          "internalType": "string",
          "name": "authority",
          "type": "string"
        }
      ],
      "stateMutability": "view",
      "type": "function"
    }
  ],
  "bytecode": "0x608060405234801561001057600080fd5b50610986806100206000396000f3fe608060405234801561001057600080fd5b506004361061004c5760003560e01c806307973ccf14610051578063133f50f51461006d5780631d201a8914610090578063a87430ba146100a5575b600080fd5b61005a60005481565b6040519081526020015b60405180910390f35b61008061007b366004610588565b6100c7565b6040519015158152602001610064565b6100a361009e366004610646565b6101b8565b005b6100b86100b3366004610588565b6103b2565b60405161006493929190610725565b6001600160a01b0381166000908152600160208181526040808420905184936100f393920191016107a2565b60405160208183030381529060405280519060200120905060405160200161012b906919dbdd995c9b9b595b9d60b21b8152600a0190565b60405160208183030381529060405280519060200120811480610179575060405167696e64757374727960c01b60208201526028016040516020818303038152906040528051906020012081145b806101b15750604051691a5b991a5d9a591d585b60b21b6020820152602a016040516020818303038152906040528051906020012081145b9392505050565b60008351116102015760405162461bcd60e51b815260206004820152601060248201526f13985b59481a5cc81c995c5d5a5c995960821b60448201526064015b60405180910390fd5b600082511161024a5760405162461bcd60e51b8152602060048201526015602482015274141c9a5d9a5b1959d9481a5cc81c995c5d5a5c9959605a1b60448201526064016101f8565b60008151116102935760405162461bcd60e51b8152602060048201526015602482015274105d5d1a1bdc9a5d1e481a5cc81c995c5d5a5c9959605a1b60448201526064016101f8565b61029c846100c7565b156102df5760405162461bcd60e51b81526020600482015260136024820152725573657220616c72656164792065786973747360681b60448201526064016101f8565b6040805160608101825284815260208082018590528183018490526001600160a01b0387166000908152600190915291909120815181906103209082610869565b50602082015160018201906103359082610869565b506040820151600282019061034a9082610869565b5090505060016000808282546103609190610929565b92505081905550836001600160a01b03167f509c70f523067009f7db7f46db6956d7af8b679323680dc3821a8bad001ac1e18484846040516103a493929190610725565b60405180910390a250505050565b6001602052600090815260409020805481906103cd90610768565b80601f01602080910402602001604051908101604052809291908181526020018280546103f990610768565b80156104465780601f1061041b57610100808354040283529160200191610446565b820191906000526020600020905b81548152906001019060200180831161042957829003601f168201915b50505050509080600101805461045b90610768565b80601f016020809104026020016040519081016040528092919081815260200182805461048790610768565b80156104d45780601f106104a9576101008083540402835291602001916104d4565b820191906000526020600020905b8154815290600101906020018083116104b757829003601f168201915b5050505050908060020180546104e990610768565b80601f016020809104026020016040519081016040528092919081815260200182805461051590610768565b80156105625780601f1061053757610100808354040283529160200191610562565b820191906000526020600020905b81548152906001019060200180831161054557829003601f168201915b5050505050905083565b80356001600160a01b038116811461058357600080fd5b919050565b60006020828403121561059a57600080fd5b6101b18261056c565b634e487b7160e01b600052604160045260246000fd5b600082601f8301126105ca57600080fd5b813567ffffffffffffffff808211156105e5576105e56105a3565b604051601f8301601f19908116603f0116810190828211818310171561060d5761060d6105a3565b8160405283815286602085880101111561062657600080fd5b836020870160208301376000602085830101528094505050505092915050565b6000806000806080858703121561065c57600080fd5b6106658561056c565b9350602085013567ffffffffffffffff8082111561068257600080fd5b61068e888389016105b9565b945060408701359150808211156106a457600080fd5b6106b0888389016105b9565b935060608701359150808211156106c657600080fd5b506106d3878288016105b9565b91505092959194509250565b6000815180845260005b81811015610705576020818501810151868301820152016106e9565b506000602082860101526020601f19601f83011685010191505092915050565b60608152600061073860608301866106df565b828103602084015261074a81866106df565b9050828103604084015261075e81856106df565b9695505050505050565b600181811c9082168061077c57607f821691505b60208210810361079c57634e487b7160e01b600052602260045260246000fd5b50919050565b60008083546107b081610768565b600182811680156107c857600181146107dd5761080c565b60ff198416875282151583028701945061080c565b8760005260208060002060005b858110156108035781548a8201529084019082016107ea565b50505082870194505b50929695505050505050565b601f821115610864576000816000526020600020601f850160051c810160208610156108415750805b601f850160051c820191505b818110156108605782815560010161084d565b5050505b505050565b815167ffffffffffffffff811115610883576108836105a3565b610897816108918454610768565b84610818565b602080601f8311600181146108cc57600084156108b45750858301515b600019600386901b1c1916600185901b178555610860565b600085815260208120601f198616915b828110156108fb578886015182559484019460019091019084016108dc565b50858210156109195787850151600019600388901b60f8161c191681555b5050505050600190811b01905550565b8082018082111561094a57634e487b7160e01b600052601160045260246000fd5b9291505056fea264697066735822122089c411c31f453aee8a04bf95671d1aed12e27e26d2d44be938012fccdc60e23f64736f6c63430008180033",
  "linkReferences": {},
  "deployedLinkReferences": {}
}