{
  "_format": "hh-sol-artifact-1",
  "contractName": "GreenCreditToken",
  "sourceName": "contracts/GreenCreditToken.sol",
  "abi": [
    {
      "inputs": [
        {
          "internalType": "uint256",
          "name": "initTokenPrice",
          "type": "uint256"
        }
      ],
      "stateMutability": "nonpayable",
      "type": "constructor"
    },
    {
      "inputs": [
        {
          "internalType": "address",
          "name": "spender",
          "type": "address"
        },
        {
          "internalType": "uint256",
          "name": "allowance",
          "type": "uint256"
        },
        {
          "internalType": "uint256",
          "name": "needed",
          "type": "uint256"
        }
      ],
      "name": "ERC20InsufficientAllowance",
      "type": "error"
    },
    {
      "inputs": [
        {
          "internalType": "address",
          "name": "sender",
          "type": "address"
        },
        {
          "internalType": "uint256",
          "name": "balance",
          "type": "uint256"
        },
        {
          "internalType": "uint256",
          "name": "needed",
          "type": "uint256"
        }
      ],
      "name": "ERC20InsufficientBalance",
      "type": "error"
    },
    {
      "inputs": [
        {
          "internalType": "address",
          "name": "approver",
          "type": "address"
        }
      ],
      "name": "ERC20InvalidApprover",
      "type": "error"
    },
    {
      "inputs": [
        {
          "internalType": "address",
          "name": "receiver",
          "type": "address"
        }
      ],
      "name": "ERC20InvalidReceiver",
      "type": "error"
    },
    {
      "inputs": [
        {
          "internalType": "address",
          "name": "sender",
          "type": "address"
        }
      ],
      "name": "ERC20InvalidSender",
      "type": "error"
    },
    {
      "inputs": [
        {
          "internalType": "address",
          "name": "spender",
          "type": "address"
        }
      ],
      "name": "ERC20InvalidSpender",
      "type": "error"
    },
    {
      "anonymous": false,
      "inputs": [
        {
          "indexed": true,
          "internalType": "address",
          "name": "owner",
          "type": "address"
        },
        {
          "indexed": true,
          "internalType": "address",
          "name": "spender",
          "type": "address"
        },
        {
          "indexed": false,
          "internalType": "uint256",
          "name": "value",
          "type": "uint256"
        }
      ],
      "name": "Approval",
      "type": "event"
    },
    {
      "anonymous": false,
      "inputs": [
        {
          "indexed": true,
          "internalType": "address",
          "name": "seller",
          "type": "address"
        },
        {
          "indexed": false,
          "internalType": "uint256",
          "name": "tokenAmount",
          "type": "uint256"
        },
        {
          "indexed": false,
          "internalType": "uint256",
          "name": "price",
          "type": "uint256"
        }
      ],
      "name": "TokensListed",
      "type": "event"
    },
    {
      "anonymous": false,
      "inputs": [
        {
          "indexed": true,
          "internalType": "address",
          "name": "buyer",
          "type": "address"
        },
        {
          "indexed": true,
          "internalType": "address",
          "name": "seller",
          "type": "address"
        },
        {
          "indexed": false,
          "internalType": "uint256",
          "name": "tokenAmount",
          "type": "uint256"
        },
        {
          "indexed": false,
          "internalType": "uint256",
          "name": "price",
          "type": "uint256"
        }
      ],
      "name": "TokensPurchasedFromMarketplace",
      "type": "event"
    },
    {
      "anonymous": false,
      "inputs": [
        {
          "indexed": true,
          "internalType": "address",
          "name": "from",
          "type": "address"
        },
        {
          "indexed": true,
          "internalType": "address",
          "name": "to",
          "type": "address"
        },
        {
          "indexed": false,
          "internalType": "uint256",
          "name": "value",
          "type": "uint256"
        }
      ],
      "name": "Transfer",
      "type": "event"
    },
    {
      "anonymous": false,
      "inputs": [
        {
          "indexed": true,
          "internalType": "address",
          "name": "_industryId",
          "type": "address"
        },
        {
          "indexed": true,
          "internalType": "address",
          "name": "_govId",
          "type": "address"
        },
        {
          "indexed": true,
          "internalType": "uint256",
          "name": "_tokenCount",
          "type": "uint256"
        },
        {
          "indexed": false,
          "internalType": "uint256",
          "name": "_taxFee",
          "type": "uint256"
        }
      ],
      "name": "tokenPurchased",
      "type": "event"
    },
    {
      "inputs": [
        {
          "internalType": "address",
          "name": "",
          "type": "address"
        }
      ],
      "name": "GovernmentAccounts",
      "outputs": [
        {
          "internalType": "bool",
          "name": "",
          "type": "bool"
        }
      ],
      "stateMutability": "view",
      "type": "function"
    },
    {
      "inputs": [],
      "name": "GreenChainPlatformOwner",
      "outputs": [
        {
          "internalType": "address payable",
          "name": "",
          "type": "address"
        }
      ],
      "stateMutability": "view",
      "type": "function"
    },
    {
      "inputs": [
        {
          "internalType": "address",
          "name": "",
          "type": "address"
        }
      ],
      "name": "IndividualAccounts",
      "outputs": [
        {
          "internalType": "bool",
          "name": "",
          "type": "bool"
        }
      ],
      "stateMutability": "view",
      "type": "function"
    },
    {
      "inputs": [
        {
          "internalType": "address",
          "name": "",
          "type": "address"
        }
      ],
      "name": "IndustryAccounts",
      "outputs": [
        {
          "internalType": "bool",
          "name": "",
          "type": "bool"
        }
      ],
      "stateMutability": "view",
      "type": "function"
    },
    {
      "inputs": [
        {
          "internalType": "address",
          "name": "",
          "type": "address"
        }
      ],
      "name": "IndustryAllowance",
      "outputs": [
        {
          "internalType": "uint256",
          "name": "",
          "type": "uint256"
        }
      ],
      "stateMutability": "view",
      "type": "function"
    },
    {
      "inputs": [
        {
          "internalType": "address",
          "name": "owner",
          "type": "address"
        },
        {
          "internalType": "address",
          "name": "spender",
          "type": "address"
        }
      ],
      "name": "allowance",
      "outputs": [
        {
          "internalType": "uint256",
          "name": "",
          "type": "uint256"
        }
      ],
      "stateMutability": "view",
      "type": "function"
    },
    {
      "inputs": [
        {
          "internalType": "address",
          "name": "spender",
          "type": "address"
        },
        {
          "internalType": "uint256",
          "name": "value",
          "type": "uint256"
        }
      ],
      "name": "approve",
      "outputs": [
        {
          "internalType": "bool",
          "name": "",
          "type": "bool"
        }
      ],
      "stateMutability": "nonpayable",
      "type": "function"
    },
    {
      "inputs": [
        {
          "internalType": "address",
          "name": "account",
          "type": "address"
        }
      ],
      "name": "balanceOf",
      "outputs": [
        {
          "internalType": "uint256",
          "name": "",
          "type": "uint256"
        }
      ],
      "stateMutability": "view",
      "type": "function"
    },
    {
      "inputs": [
        {
          "internalType": "address",
          "name": "_address",
          "type": "address"
        },
        {
          "internalType": "uint256",
          "name": "_tokenCount",
          "type": "uint256"
        }
      ],
      "name": "burnToken",
      "outputs": [],
      "stateMutability": "nonpayable",
      "type": "function"
    },
    {
      "inputs": [
        {
          "internalType": "address",
          "name": "_to",
          "type": "address"
        },
        {
          "internalType": "uint256",
          "name": "_tokenCount",
          "type": "uint256"
        },
        {
          "internalType": "address payable",
          "name": "_govAddress",
          "type": "address"
        }
      ],
      "name": "buyToken",
      "outputs": [],
      "stateMutability": "payable",
      "type": "function"
    },
    {
      "inputs": [
        {
          "internalType": "uint256",
          "name": "_listingId",
          "type": "uint256"
        }
      ],
      "name": "buyTokensFromMarketpalce",
      "outputs": [],
      "stateMutability": "payable",
      "type": "function"
    },
    {
      "inputs": [
        {
          "internalType": "uint256",
          "name": "rewardAmount",
          "type": "uint256"
        }
      ],
      "name": "collectReward",
      "outputs": [],
      "stateMutability": "nonpayable",
      "type": "function"
    },
    {
      "inputs": [],
      "name": "decimals",
      "outputs": [
        {
          "internalType": "uint8",
          "name": "",
          "type": "uint8"
        }
      ],
      "stateMutability": "view",
      "type": "function"
    },
    {
      "inputs": [
        {
          "internalType": "address",
          "name": "_account",
          "type": "address"
        }
      ],
      "name": "grantGovernmentPrivilege",
      "outputs": [],
      "stateMutability": "nonpayable",
      "type": "function"
    },
    {
      "inputs": [
        {
          "internalType": "address",
          "name": "_account",
          "type": "address"
        }
      ],
      "name": "grantIndustryPrivilege",
      "outputs": [],
      "stateMutability": "nonpayable",
      "type": "function"
    },
    {
      "inputs": [
        {
          "internalType": "address",
          "name": "_industry",
          "type": "address"
        },
        {
          "internalType": "uint256",
          "name": "_maxAllowance",
          "type": "uint256"
        },
        {
          "internalType": "uint256",
          "name": "_tokenCount",
          "type": "uint256"
        }
      ],
      "name": "initialAllowance",
      "outputs": [],
      "stateMutability": "nonpayable",
      "type": "function"
    },
    {
      "inputs": [
        {
          "internalType": "uint256",
          "name": "_tokenCount",
          "type": "uint256"
        },
        {
          "internalType": "uint256",
          "name": "_price",
          "type": "uint256"
        }
      ],
      "name": "listTokensForSale",
      "outputs": [],
      "stateMutability": "nonpayable",
      "type": "function"
    },
    {
      "inputs": [],
      "name": "listingCount",
      "outputs": [
        {
          "internalType": "uint256",
          "name": "",
          "type": "uint256"
        }
      ],
      "stateMutability": "view",
      "type": "function"
    },
    {
      "inputs": [
        {
          "internalType": "uint256",
          "name": "",
          "type": "uint256"
        }
      ],
      "name": "listings",
      "outputs": [
        {
          "internalType": "address",
          "name": "seller",
          "type": "address"
        },
        {
          "internalType": "uint256",
          "name": "tokenAmount",
          "type": "uint256"
        },
        {
          "internalType": "uint256",
          "name": "price",
          "type": "uint256"
        },
        {
          "internalType": "bool",
          "name": "isActive",
          "type": "bool"
        }
      ],
      "stateMutability": "view",
      "type": "function"
    },
    {
      "inputs": [],
      "name": "name",
      "outputs": [
        {
          "internalType": "string",
          "name": "",
          "type": "string"
        }
      ],
      "stateMutability": "view",
      "type": "function"
    },
    {
      "inputs": [],
      "name": "registerIndividual",
      "outputs": [],
      "stateMutability": "nonpayable",
      "type": "function"
    },
    {
      "inputs": [
        {
          "internalType": "uint256",
          "name": "newPrice",
          "type": "uint256"
        }
      ],
      "name": "setTokenPrice",
      "outputs": [],
      "stateMutability": "nonpayable",
      "type": "function"
    },
    {
      "inputs": [],
      "name": "symbol",
      "outputs": [
        {
          "internalType": "string",
          "name": "",
          "type": "string"
        }
      ],
      "stateMutability": "view",
      "type": "function"
    },
    {
      "inputs": [],
      "name": "tokenPrice",
      "outputs": [
        {
          "internalType": "uint256",
          "name": "",
          "type": "uint256"
        }
      ],
      "stateMutability": "view",
      "type": "function"
    },
    {
      "inputs": [],
      "name": "totalSupply",
      "outputs": [
        {
          "internalType": "uint256",
          "name": "",
          "type": "uint256"
        }
      ],
      "stateMutability": "view",
      "type": "function"
    },
    {
      "inputs": [
        {
          "internalType": "address",
          "name": "to",
          "type": "address"
        },
        {
          "internalType": "uint256",
          "name": "value",
          "type": "uint256"
        }
      ],
      "name": "transfer",
      "outputs": [
        {
          "internalType": "bool",
          "name": "",
          "type": "bool"
        }
      ],
      "stateMutability": "nonpayable",
      "type": "function"
    },
    {
      "inputs": [
        {
          "internalType": "address",
          "name": "from",
          "type": "address"
        },
        {
          "internalType": "address",
          "name": "to",
          "type": "address"
        },
        {
          "internalType": "uint256",
          "name": "value",
          "type": "uint256"
        }
      ],
      "name": "transferFrom",
      "outputs": [
        {
          "internalType": "bool",
          "name": "",
          "type": "bool"
        }
      ],
      "stateMutability": "nonpayable",
      "type": "function"
    }
  ],
  "bytecode": "0x60806040523480156200001157600080fd5b5060405162001d7d38038062001d7d83398101604081905262000034916200025b565b6040518060400160405280600b81526020016a11dc99595b90dc99591a5d60aa1b8152506040518060400160405280600381526020016211d0d560ea1b81525081600390816200008591906200031c565b5060046200009482826200031c565b5050600580546001600160a01b031916339081179091556006839055620000df9150620000bf601290565b620000cc90600a620004fd565b620000d990606462000515565b620000e6565b5062000545565b6001600160a01b038216620001165760405163ec442f0560e01b8152600060048201526024015b60405180910390fd5b620001246000838362000128565b5050565b6001600160a01b038316620001575780600260008282546200014b91906200052f565b90915550620001cb9050565b6001600160a01b03831660009081526020819052604090205481811015620001ac5760405163391434e360e21b81526001600160a01b038516600482015260248101829052604481018390526064016200010d565b6001600160a01b03841660009081526020819052604090209082900390555b6001600160a01b038216620001e95760028054829003905562000208565b6001600160a01b03821660009081526020819052604090208054820190555b816001600160a01b0316836001600160a01b03167fddf252ad1be2c89b69c2b068fc378daa952ba7f163c4a11628f55a4df523b3ef836040516200024e91815260200190565b60405180910390a3505050565b6000602082840312156200026e57600080fd5b5051919050565b634e487b7160e01b600052604160045260246000fd5b600181811c90821680620002a057607f821691505b602082108103620002c157634e487b7160e01b600052602260045260246000fd5b50919050565b601f82111562000317576000816000526020600020601f850160051c81016020861015620002f25750805b601f850160051c820191505b818110156200031357828155600101620002fe565b5050505b505050565b81516001600160401b0381111562000338576200033862000275565b62000350816200034984546200028b565b84620002c7565b602080601f8311600181146200038857600084156200036f5750858301515b600019600386901b1c1916600185901b17855562000313565b600085815260208120601f198616915b82811015620003b95788860151825594840194600190910190840162000398565b5085821015620003d85787850151600019600388901b60f8161c191681555b5050505050600190811b01905550565b634e487b7160e01b600052601160045260246000fd5b600181815b808511156200043f578160001904821115620004235762000423620003e8565b808516156200043157918102915b93841c939080029062000403565b509250929050565b6000826200045857506001620004f7565b816200046757506000620004f7565b81600181146200048057600281146200048b57620004ab565b6001915050620004f7565b60ff8411156200049f576200049f620003e8565b50506001821b620004f7565b5060208310610133831016604e8410600b8410161715620004d0575081810a620004f7565b620004dc8383620003fe565b8060001904821115620004f357620004f3620003e8565b0290505b92915050565b60006200050e60ff84168362000447565b9392505050565b8082028115828204841417620004f757620004f7620003e8565b80820180821115620004f757620004f7620003e8565b61182880620005556000396000f3fe60806040526004361061019c5760003560e01c80637ff9b596116100ec578063cb8c0c1d1161008a578063dd62ed3e11610064578063dd62ed3e146104cf578063de74e57b14610515578063f13e833114610590578063fbd9be8b146105c057600080fd5b8063cb8c0c1d14610462578063d1df306c1461048f578063d22b2ed0146104af57600080fd5b8063a9059cbb116100c6578063a9059cbb146103f7578063a9b07c2614610417578063b6267ae81461042d578063bd3507da1461044257600080fd5b80637ff9b596146103b957806395d89b41146103cf5780639a83dc3d146103e457600080fd5b8063313ce567116101595780635fe01930116101335780635fe0193014610311578063692bf4a8146103505780636a61e5fc1461036357806370a082311461038357600080fd5b8063313ce567146102a35780634fac0168146102bf57806351e73a16146102ef57600080fd5b806306fdde03146101a1578063095ea7b3146101cc5780630a8c8f20146101fc57806318160ddd1461022c57806323b872dd1461024b5780632ea665cd1461026b575b600080fd5b3480156101ad57600080fd5b506101b66105e0565b6040516101c391906113dd565b60405180910390f35b3480156101d857600080fd5b506101ec6101e7366004611441565b610672565b60405190151581526020016101c3565b34801561020857600080fd5b506101ec61021736600461146d565b60086020526000908152604090205460ff1681565b34801561023857600080fd5b506002545b6040519081526020016101c3565b34801561025757600080fd5b506101ec610266366004611491565b61068c565b34801561027757600080fd5b5060055461028b906001600160a01b031681565b6040516001600160a01b0390911681526020016101c3565b3480156102af57600080fd5b50604051601281526020016101c3565b3480156102cb57600080fd5b506101ec6102da36600461146d565b60096020526000908152604090205460ff1681565b3480156102fb57600080fd5b5061030f61030a3660046114d2565b6106b0565b005b34801561031d57600080fd5b5061030f61032c36600461146d565b6001600160a01b03166000908152600860205260409020805460ff19166001179055565b61030f61035e366004611507565b61084a565b34801561036f57600080fd5b5061030f61037e366004611549565b610a59565b34801561038f57600080fd5b5061023d61039e36600461146d565b6001600160a01b031660009081526020819052604090205490565b3480156103c557600080fd5b5061023d60065481565b3480156103db57600080fd5b506101b6610a92565b61030f6103f2366004611549565b610aa1565b34801561040357600080fd5b506101ec610412366004611441565b610c4f565b34801561042357600080fd5b5061023d600c5481565b34801561043957600080fd5b5061030f610c5d565b34801561044e57600080fd5b5061030f61045d366004611549565b610ce5565b34801561046e57600080fd5b5061023d61047d36600461146d565b600a6020526000908152604090205481565b34801561049b57600080fd5b5061030f6104aa366004611441565b610de3565b3480156104bb57600080fd5b5061030f6104ca36600461146d565b610e83565b3480156104db57600080fd5b5061023d6104ea366004611562565b6001600160a01b03918216600090815260016020908152604080832093909416825291909152205490565b34801561052157600080fd5b50610564610530366004611549565b600b6020526000908152604090208054600182015460028301546003909301546001600160a01b0390921692909160ff1684565b604080516001600160a01b039095168552602085019390935291830152151560608201526080016101c3565b34801561059c57600080fd5b506101ec6105ab36600461146d565b60076020526000908152604090205460ff1681565b3480156105cc57600080fd5b5061030f6105db36600461159b565b610ec9565b6060600380546105ef906115bd565b80601f016020809104026020016040519081016040528092919081815260200182805461061b906115bd565b80156106685780601f1061063d57610100808354040283529160200191610668565b820191906000526020600020905b81548152906001019060200180831161064b57829003601f168201915b5050505050905090565b600033610680818585611088565b60019150505b92915050565b60003361069a858285611095565b6106a5858585611113565b506001949350505050565b3360009081526007602052604090205460ff1615156001146106ed5760405162461bcd60e51b81526004016106e4906115f7565b60405180910390fd5b6001600160a01b0383166107375760405162461bcd60e51b8152602060048201526011602482015270496e76616c69642061646472657373657360781b60448201526064016106e4565b6001600160a01b03831660009081526008602052604090205460ff1615156001146107ae5760405162461bcd60e51b815260206004820152602160248201527f676976656e2061646472657373206d75737420626520616e20696e64757374726044820152607960f81b60648201526084016106e4565b600081116108095760405162461bcd60e51b815260206004820152602260248201527f746f6b656e20436f756e74206d7573742062652067726561746572207468616e604482015261020360f41b60648201526084016106e4565b6001600160a01b0383166000908152600a602052604090208290556108453384601261083690600a611740565b610840908561174f565b611113565b505050565b3360009081526008602052604090205460ff16151560011461087e5760405162461bcd60e51b81526004016106e490611766565b600082116108d95760405162461bcd60e51b815260206004820152602260248201527f546f6b656e20636f756e74206d7573742062652067726561746572207468616e604482015261020360f41b60648201526084016106e4565b34826006546108e8919061174f565b146109285760405162461bcd60e51b815260206004820152601060248201526f125b98dbdc9c9958dd08185b5bdd5b9d60821b60448201526064016106e4565b6001600160a01b0383166000908152600a60205260409020548211156109855760405162461bcd60e51b8152602060048201526012602482015271105b1b1bddd85b98d948195e18d95959195960721b60448201526064016106e4565b6109a4836109956012600a611740565b61099f908561174f565b611172565b6040516001600160a01b038216903480156108fc02916000818181858888f193505050501580156109d9573d6000803e3d6000fd5b506001600160a01b0383166000908152600a60205260409020546109fe9083906117b3565b6001600160a01b038481166000818152600a602090815260409182902094909455513481528593928516927f5fc4872a04fc9ef9e80a6593db4a82874ea60fbc1f93bd4d0b7a00d4aa8ae556910160405180910390a4505050565b3360009081526007602052604090205460ff161515600114610a8d5760405162461bcd60e51b81526004016106e4906115f7565b600655565b6060600480546105ef906115bd565b3360009081526008602052604090205460ff161515600114610ad55760405162461bcd60e51b81526004016106e490611766565b6000818152600b60205260409020600381015460ff16610b2f5760405162461bcd60e51b81526020600482015260156024820152744c697374696e67206973206e6f742061637469766560581b60448201526064016106e4565b80600201543414610b825760405162461bcd60e51b815260206004820152601860248201527f496e636f7272656374207061796d656e7420616d6f756e74000000000000000060448201526064016106e4565b8054610bad906001600160a01b031633610b9e6012600a611740565b8460010154610840919061174f565b80546040516001600160a01b03909116903480156108fc02916000818181858888f19350505050158015610be5573d6000803e3d6000fd5b5060038101805460ff191690558054600182015460028301546040516001600160a01b039093169233927f85f10505be3ed7bf7f1e02cf6bf521e67cd27c4b1e91954cc55d67c262fa64ff92610c4392918252602082015260400190565b60405180910390a35050565b600033610680818585611113565b3360009081526009602052604090205460ff1615610cc95760405162461bcd60e51b815260206004820152602360248201527f416c7265616479207265676973746572656420617320616e20696e64697669646044820152621d585b60ea1b60648201526084016106e4565b336000908152600960205260409020805460ff19166001179055565b3360009081526009602052604090205460ff16610d6a5760405162461bcd60e51b815260206004820152603760248201527f4f6e6c79207265676973746572656420696e646976696475616c20757365727360448201527f2063616e2063616c6c20746869732066756e6374696f6e00000000000000000060648201526084016106e4565b60008111610dc65760405162461bcd60e51b8152602060048201526024808201527f52657761726420616d6f756e74206d75737420626520677265617465722074686044820152630616e20360e41b60648201526084016106e4565b610de033610dd66012600a611740565b61099f908461174f565b50565b610def6012600a611740565b610df9908261174f565b6001600160a01b0383166000908152602081905260409020541015610e605760405162461bcd60e51b815260206004820152601960248201527f746f6b656e20636f756e74206973206e6f7420656e6f7567680000000000000060448201526064016106e4565b610e7f82610e706012600a611740565b610e7a908461174f565b6111a8565b5050565b6001600160a01b0381166000908152600760205260409020805460ff19166001179055610de033610eb2601290565b610ebd90600a611740565b61099f906103e861174f565b3360009081526008602052604090205460ff161515600114610efd5760405162461bcd60e51b81526004016106e490611766565b81610f0a6012600a611740565b610f14908261174f565b336000908152602081905260409020541015610f695760405162461bcd60e51b8152602060048201526014602482015273496e73756666696369656e742062616c616e636560601b60448201526064016106e4565b600083118015610f795750600082115b610fc55760405162461bcd60e51b815260206004820152601760248201527f496e76616c696420616d6f756e74206f7220707269636500000000000000000060448201526064016106e4565b60408051608081018252338082526020808301878152838501878152600160608601818152600c546000908152600b8652889020965187546001600160a01b0319166001600160a01b03909116178755925190860155516002850155516003909301805460ff1916931515939093179092558251868152918201859052917fcf412bfe866866664047e9f9e38cc21c13173a37c85de5d29b65f1822231ec00910160405180910390a2600c805490600061107e836117c6565b9190505550505050565b61084583838360016111de565b6001600160a01b03838116600090815260016020908152604080832093861683529290522054600019811461110d57818110156110fe57604051637dc7a0d960e11b81526001600160a01b038416600482015260248101829052604481018390526064016106e4565b61110d848484840360006111de565b50505050565b6001600160a01b03831661113d57604051634b637e8f60e11b8152600060048201526024016106e4565b6001600160a01b0382166111675760405163ec442f0560e01b8152600060048201526024016106e4565b6108458383836112b3565b6001600160a01b03821661119c5760405163ec442f0560e01b8152600060048201526024016106e4565b610e7f600083836112b3565b6001600160a01b0382166111d257604051634b637e8f60e11b8152600060048201526024016106e4565b610e7f826000836112b3565b6001600160a01b0384166112085760405163e602df0560e01b8152600060048201526024016106e4565b6001600160a01b03831661123257604051634a1406b160e11b8152600060048201526024016106e4565b6001600160a01b038085166000908152600160209081526040808320938716835292905220829055801561110d57826001600160a01b0316846001600160a01b03167f8c5be1e5ebec7d5bd14f71427d1e84f3dd0314c0f7b2291e5b200ac8c7c3b925846040516112a591815260200190565b60405180910390a350505050565b6001600160a01b0383166112de5780600260008282546112d391906117df565b909155506113509050565b6001600160a01b038316600090815260208190526040902054818110156113315760405163391434e360e21b81526001600160a01b038516600482015260248101829052604481018390526064016106e4565b6001600160a01b03841660009081526020819052604090209082900390555b6001600160a01b03821661136c5760028054829003905561138b565b6001600160a01b03821660009081526020819052604090208054820190555b816001600160a01b0316836001600160a01b03167fddf252ad1be2c89b69c2b068fc378daa952ba7f163c4a11628f55a4df523b3ef836040516113d091815260200190565b60405180910390a3505050565b60006020808352835180602085015260005b8181101561140b578581018301518582016040015282016113ef565b506000604082860101526040601f19601f8301168501019250505092915050565b6001600160a01b0381168114610de057600080fd5b6000806040838503121561145457600080fd5b823561145f8161142c565b946020939093013593505050565b60006020828403121561147f57600080fd5b813561148a8161142c565b9392505050565b6000806000606084860312156114a657600080fd5b83356114b18161142c565b925060208401356114c18161142c565b929592945050506040919091013590565b6000806000606084860312156114e757600080fd5b83356114f28161142c565b95602085013595506040909401359392505050565b60008060006060848603121561151c57600080fd5b83356115278161142c565b925060208401359150604084013561153e8161142c565b809150509250925092565b60006020828403121561155b57600080fd5b5035919050565b6000806040838503121561157557600080fd5b82356115808161142c565b915060208301356115908161142c565b809150509250929050565b600080604083850312156115ae57600080fd5b50508035926020909101359150565b600181811c908216806115d157607f821691505b6020821081036115f157634e487b7160e01b600052602260045260246000fd5b50919050565b6020808252602f908201527f6f6e6c7920676f7665726e6d656e7420617574686f726974792063616e20757360408201526e32903a3434b990333ab731ba34b7b760891b606082015260800190565b634e487b7160e01b600052601160045260246000fd5b600181815b8085111561169757816000190482111561167d5761167d611646565b8085161561168a57918102915b93841c9390800290611661565b509250929050565b6000826116ae57506001610686565b816116bb57506000610686565b81600181146116d157600281146116db576116f7565b6001915050610686565b60ff8411156116ec576116ec611646565b50506001821b610686565b5060208310610133831016604e8410600b841016171561171a575081810a610686565b611724838361165c565b806000190482111561173857611738611646565b029392505050565b600061148a60ff84168361169f565b808202811582820484141761068657610686611646565b6020808252602d908201527f6f6e6c7920696e64757374727920617574686f726974792063616e207573652060408201526c3a3434b990333ab731ba34b7b760991b606082015260800190565b8181038181111561068657610686611646565b6000600182016117d8576117d8611646565b5060010190565b808201808211156106865761068661164656fea26469706673582212206b88a19d2cb38cb8aedbdac6fd4ede656016797fb39047f0b0b2c133e25ea5ed64736f6c63430008180033",
  "linkReferences": {},
  "deployedLinkReferences": {}
}