{
  "_format": "hh-sol-artifact-1",
  "contractName": "KYCProcess",
  "sourceName": "contracts/KYCProcess.sol",
  "abi": [
    {
      "anonymous": false,
      "inputs": [
        {
          "indexed": true,
          "internalType": "address",
          "name": "industry",
          "type": "address"
        },
        {
          "indexed": false,
          "internalType": "string",
          "name": "ipfsUrl",
          "type": "string"
        }
      ],
      "name": "CertificateSubmitted",
      "type": "event"
    },
    {
      "anonymous": false,
      "inputs": [
        {
          "indexed": true,
          "internalType": "address",
          "name": "government",
          "type": "address"
        },
        {
          "indexed": true,
          "internalType": "address",
          "name": "industry",
          "type": "address"
        },
        {
          "indexed": false,
          "internalType": "enum KYCProcess.VerificationStatus",
          "name": "status",
          "type": "uint8"
        }
      ],
      "name": "CertificateVerified",
      "type": "event"
    },
    {
      "inputs": [],
      "name": "certificateCount",
      "outputs": [
        {
          "internalType": "uint256",
          "name": "",
          "type": "uint256"
        }
      ],
      "stateMutability": "view",
      "type": "function"
    },
    {
      "inputs": [
        {
          "internalType": "address",
          "name": "",
          "type": "address"
        }
      ],
      "name": "certificates",
      "outputs": [
        {
          "internalType": "string",
          "name": "ipfsUrl",
          "type": "string"
        },
        {
          "internalType": "enum KYCProcess.VerificationStatus",
          "name": "status",
          "type": "uint8"
        },
        {
          "internalType": "address",
          "name": "submittedBy",
          "type": "address"
        },
        {
          "internalType": "address",
          "name": "verifiedBy",
          "type": "address"
        }
      ],
      "stateMutability": "view",
      "type": "function"
    },
    {
      "inputs": [
        {
          "internalType": "uint256",
          "name": "",
          "type": "uint256"
        }
      ],
      "name": "industries",
      "outputs": [
        {
          "internalType": "address",
          "name": "",
          "type": "address"
        }
      ],
      "stateMutability": "view",
      "type": "function"
    },
    {
      "inputs": [
        {
          "internalType": "string",
          "name": "ipfsUrl",
          "type": "string"
        }
      ],
      "name": "submitCertificate",
      "outputs": [],
      "stateMutability": "nonpayable",
      "type": "function"
    },
    {
      "inputs": [
        {
          "internalType": "address",
          "name": "industry",
          "type": "address"
        },
        {
          "internalType": "enum KYCProcess.VerificationStatus",
          "name": "status",
          "type": "uint8"
        }
      ],
      "name": "verifyCertificate",
      "outputs": [],
      "stateMutability": "nonpayable",
      "type": "function"
    }
  ],
  "bytecode": "0x60806040526000805534801561001457600080fd5b5061091b806100246000396000f3fe608060405234801561001057600080fd5b50600436106100565760003560e01c806216e5261461005b5780630e2126b21461008757806352d7b89c1461009c5780636b946e40146100b3578063aa209301146100de575b600080fd5b61006e61006936600461054c565b6100f1565b60405161007e94939291906105ec565b60405180910390f35b61009a610095366004610631565b6101b2565b005b6100a560005481565b60405190815260200161007e565b6100c66100c136600461066c565b6102f5565b6040516001600160a01b03909116815260200161007e565b61009a6100ec36600461069b565b61031f565b60016020526000908152604090208054819061010c9061074c565b80601f01602080910402602001604051908101604052809291908181526020018280546101389061074c565b80156101855780601f1061015a57610100808354040283529160200191610185565b820191906000526020600020905b81548152906001019060200180831161016857829003601f168201915b5050506001840154600290940154929360ff8116936001600160a01b036101009092048216935016905084565b8160006001600160a01b0382166000908152600160208190526040909120015460ff1660028111156101e6576101e66105b4565b1461024a5760405162461bcd60e51b815260206004820152602960248201527f4b59433a204365727469666963617465206e6f742070656e64696e672076657260448201526834b334b1b0ba34b7b760b91b60648201526084015b60405180910390fd5b6001600160a01b038316600090815260016020819052604090912081018054849260ff1990911690836002811115610284576102846105b4565b02179055506001600160a01b0383166000818152600160205260409081902060020180546001600160a01b0319163390811790915590517f773824696e363013fa0795129b6c117667f56a9e43b838c3ff076c2a0a80af76906102e8908690610786565b60405180910390a3505050565b6002818154811061030557600080fd5b6000918252602090912001546001600160a01b0316905081565b60008151116103705760405162461bcd60e51b815260206004820152601d60248201527f4b59433a20495046532055524c2063616e6e6f7420626520656d7074790000006044820152606401610241565b336000908152600160208190526040909120015461010090046001600160a01b0316156103ea5760405162461bcd60e51b815260206004820152602260248201527f4b59433a20436572746966696361746520616c7265616479207375626d697474604482015261195960f21b6064820152608401610241565b604080516080810190915281815260208101600081523360208083018290526000604093840181905291825260019052208151819061042990826107eb565b50602082015160018083018054909160ff1990911690836002811115610451576104516105b4565b02179055506040820151600182018054610100600160a81b0319166101006001600160a01b0393841602179055606090920151600290910180546001600160a01b031916919092161790556000805490806104ab836108ab565b9091555050600280546001810182556000919091527f405787fa12a823e0f2b7631cc41b3ba8828b3321ca811111fa75cd3aa3bb5ace0180546001600160a01b031916339081179091556040517f896c7f89049b10206b235707d3d1d91257c12ae5da94321b04e39842d3c4e16b906105259084906108d2565b60405180910390a250565b80356001600160a01b038116811461054757600080fd5b919050565b60006020828403121561055e57600080fd5b61056782610530565b9392505050565b6000815180845260005b8181101561059457602081850181015186830182015201610578565b506000602082860101526020601f19601f83011685010191505092915050565b634e487b7160e01b600052602160045260246000fd5b600381106105e857634e487b7160e01b600052602160045260246000fd5b9052565b6080815260006105ff608083018761056e565b905061060e60208301866105ca565b6001600160a01b0393841660408301529190921660609092019190915292915050565b6000806040838503121561064457600080fd5b61064d83610530565b915060208301356003811061066157600080fd5b809150509250929050565b60006020828403121561067e57600080fd5b5035919050565b634e487b7160e01b600052604160045260246000fd5b6000602082840312156106ad57600080fd5b813567ffffffffffffffff808211156106c557600080fd5b818401915084601f8301126106d957600080fd5b8135818111156106eb576106eb610685565b604051601f8201601f19908116603f0116810190838211818310171561071357610713610685565b8160405282815287602084870101111561072c57600080fd5b826020860160208301376000928101602001929092525095945050505050565b600181811c9082168061076057607f821691505b60208210810361078057634e487b7160e01b600052602260045260246000fd5b50919050565b6020810161079482846105ca565b92915050565b601f8211156107e6576000816000526020600020601f850160051c810160208610156107c35750805b601f850160051c820191505b818110156107e2578281556001016107cf565b5050505b505050565b815167ffffffffffffffff81111561080557610805610685565b61081981610813845461074c565b8461079a565b602080601f83116001811461084e57600084156108365750858301515b600019600386901b1c1916600185901b1785556107e2565b600085815260208120601f198616915b8281101561087d5788860151825594840194600190910190840161085e565b508582101561089b5787850151600019600388901b60f8161c191681555b5050505050600190811b01905550565b6000600182016108cb57634e487b7160e01b600052601160045260246000fd5b5060010190565b602081526000610567602083018461056e56fea2646970667358221220909c0193c5241f3492bab6f5c10affe231dd87d6225eea6c8e4de5eda1f533b864736f6c63430008180033",
  "linkReferences": {},
  "deployedLinkReferences": {}
}